:1000000000308A0011280000223084008313000889
:10001000031910282030F700F70B0C28800B0A2852
:10002000080007309F0083131F30830583160610D6
:100030008312061483168610831286108316061107
:10004000831206111830A100FA30A2000420A10B7F
:1000500024288316061083120610831606118312B5
:1000600006151030A100FA30A2000420A10B33289D
:1000700083160611831206118316861083128614C6
:100080000C30A100FA30A2000420A10B42288316F4
:1000900086108312861083160610831206148316A8
:1000A0008612831286168316061283120612831690
:1000B0008611831286111830A100FA30A2000420A4
:1000C000A10B5D2883168612831286128316861171
:1000D000831286151030A100FA30A2000420A10B73
:1000E0006C288316861183128611831606128312DA
:1000F00006160C30A100FA30A2000420A10B7B28C8
:10010000831606128312061283168612831286162F
:0201100063008A
:02400E00413F30
:00000001FF
;PIC16F628A
;CRC=BA91  CREATED="20-mar-24 10:03"
