:1000000000308A00192800002B3084008313000878
:10001000031918280130F800F701F70B0D28F80B29
:100020000C284A30F700F70B13281628800B0A28F3
:10003000462807309F0083131F3083053F30A00000
:100040000630A1005B30A2004F30A3006630A40050
:100050006D30A5007C30A6000730A7007F30A800D7
:100060006730A900AA0120302A0784008313000802
:10007000AB008316860183122B088600AA0A2A0881
:10008000093C031CAA016430AB0004283328630038
:02400E00413F30
:00000001FF
;PIC16F628A
;CRC=E5B0  CREATED="10-mar-24 15:31"
