:1000000000308A0019280000223084008313000881
:10001000031918280130F800F701F70B0D28F80B29
:100020000C284A30F700F70B13281628800B0A28F3
:10003000080007309F0083131F30830583160108D3
:10004000C0390238810083128101831606108312A1
:1000500006108316861083128610831606118312EB
:1000600006118316861183128611831606128312D7
:1000700006128316861283128612831606138312C3
:100080000617831606178312061BA028831606116F
:10009000831206150430A100FA30A2000420A10B3F
:1000A0004C288316061183120611831686108312BC
:1000B00086140830A100FA30A2000420A10B5B28AE
:1000C0008316861083128610831606108312061478
:1000D0000430A100FA30A2000420A10B6A28831684
:1000E00006108312061083168612831286160430B9
:1000F000A100FA30A2000420A10B792883168612F1
:100100008312861283160612831206160430A1008B
:10011000FA30A2000420A10B88288316061283124D
:10012000061283168611831286150430A100FA3058
:10013000A2000420A10B9728831686118312861132
:0401400041286300EF
:02400E00503F21
:00000001FF
;PIC16F628A
;CRC=5BA0  CREATED="20-mar-24 09:14"
